:10000000B80A0020C90000002D0100002D010000E9
:100010002D0100002D0100002D0100000000000056
:100020000000000000000000000000002D010000A2
:100030002D010000000000002D0100002D01000036
:10004000ED1700002D0100002D0F0000550F0000DE
:10005000850E0000D90E00002D0100002D010000CA
:100060002D0100002D0100002D0100002D010000D8
:100070002D0100002D0100006D020000E1020000D2
:1000800055030000C90300002D0100002D010000F0
:100090002D0100002D0100002D0100002D010000A8
:1000A0002D0100002D0100002D0100002D01000098
:1000B00015180000351B00002D0100002D01000067
:1000C00080B500AFBD4680BD80B582B000AF124B99
:1000D0007B60124B3B6007E03B681A1D3A607A6810
:1000E000111D796012681A603A680D4B9A42F3D379
:1000F0000C4B3B6004E03B681A1D3A6000221A601A
:100100003A68094B9A42F6D3FFF7DAFF00F0BAFDDE
:10011000BD4602B080BDC046B431000000000020E2
:100120003806002038060020B806002080B500AF51
:10013000FEE7C04680B500AF01200B21012200F090
:100140001DFF01200F21002200F018FFBD4680BDD9
:1001500080B500AF03200E21012200F00FFFBD4645
:1001600080BDC04680B500AF02200C21012200F006
:1001700005FF02200D21012200F000FF02200E21C8
:10018000012200F0FBFE02200F21012200F0F6FE0A
:10019000BD4680BD80B582B000AFFB1D03221A7042
:1001A000112000F0CDFFFB1D1B78181C012100223F
:1001B000202300F043F9FB1D1B78181C002100F0E0
:1001C00087FBFB1D1B78181C002100F0A1FBFB1D09
:1001D0001B78181C012100F053FBBD4602B080BD06
:1001E00080B582B002AF172000F0AAFF182000F0FF
:1001F000A7FF192000F0A4FF1A2000F0A1FF1B2088
:1002000000F09EFF1C2000F09BFF1D2000F098FFD7
:100210001E2000F095FF0023009300200021FF2204
:10022000002301F0A9FB002001F02EFC034B181C59
:10023000002101F055FCBD4680BDC04641020000D2
:1002400080B582B000AF7860BD4602B080BDC046C8
:1002500080B500AFFFF76EFFFFF77AFFFFF782FF71
:10026000FFF798FFFFF7BCFFBD4680BD80B500AF2C
:10027000194B1B681B0C1A1C01231340DBB2012B0A
:100280000FD1154B1A68802149020A431A60134B9B
:100290005B68002B05D0114B5A68104B9B68181CEB
:1002A00090470D4BDB6BDB0A1A1C01231340DBB2BA
:1002B000012B0FD1084BDA6B802109010A43DA6365
:1002C000064BDB68002B05D0044BDA68034B1B6937
:1002D000181C9047BD4680BD000003403806002032
:1002E00080B500AF194B1B681B0C1A1C012313406F
:1002F000DBB2012B0FD1154B1A68802149020A434A
:100300001A60134B9B69002B05D0114B9A69104B57
:10031000DB69181C90470D4BDB6BDB0A1A1C0123B1
:100320001340DBB2012B0FD1084BDA6B802109019E
:100330000A43DA63064B1B6A002B05D0044B1A6A8A
:10034000034B5B6A181C9047BD4680BD00400340CC
:100350003806002080B500AF194B1B681B0C1A1C17
:1003600001231340DBB2012B0FD1154B1A688021FA
:1003700049020A431A60134BDB6A002B05D0114B6C
:10038000DA6A104B1B6B181C90470D4BDB6BDB0ABA
:100390001A1C01231340DBB2012B0FD1084BDA6B7F
:1003A000802109010A43DA63064B5B6B002B05D001
:1003B000044B5A6B034B9B6B181C9047BD4680BD8A
:1003C000000013403806002080B500AF194B1B68B1
:1003D0001B0C1A1C01231340DBB2012B0FD1154B50
:1003E0001A68802149020A431A60134B1B6C002BC8
:1003F00005D0114B1A6C104B5B6C181C90470D4BC1
:10040000DB6BDB0A1A1C01231340DBB2012B0FD17B
:10041000084BDA6B802109010A43DA63064B9B6CB7
:10042000002B05D0044B9A6C034BDB6C181C9047D7
:10043000BD4680BD004013403806002090B585B011
:1004400000AF041C081C111C3B60FB1D221C1A7011
:10045000BB1D021C1A707B1D0A1C1A70FB1D1A782A
:10046000D949131C9B009B189B005B5C002B01D09F
:10047000D64BFFE13B68002B02DD3B68202B01DD02
:10048000D34BF7E1FB1D1B78002B13D1D14B9A689E
:10049000802149010A439A60A023DB05DA688021A4
:1004A00049010A43DA60A023DB05DA68CA490A4039
:1004B000DA6042E0FB1D1B78012B13D1C54B9A6813
:1004C000802189010A439A60A023DB05DA68802134
:1004D00089010A43DA60A023DB05DA68BF490A40D4
:1004E000DA602AE0FB1D1B78022B13D1B94B9A6806
:1004F0008021C9010A439A60A023DB05DA688021C4
:10050000C9010A43DA60A023DB05DA68B4490A406E
:10051000DA6012E0AF4B9A68802109020A439A60C0
:10052000A023DB05DA68802109020A43DA60A023F0
:10053000DB05DA68AB490A40DA6080235B02FB60C6
:1005400006E0FB685A1EFA60002B01DCA64B91E125
:10055000FB1D1A78A54B9200D3581B681A1C012367
:100560001340DBB2012BECD0FB1D1A789649131C0B
:100570009B009B189B0001225A54FB1D1A7892493C
:10058000131C9B009B189B00CB1800225A60FB1D7C
:100590001A788D49131C9B009B189B00CB180833BD
:1005A00000221A60FB1D1A788749131C9B009B18B8
:1005B0009B00CB18083300225A60FB1D1A78824931
:1005C000131C9B009B189B00CB18103300221A6051
:1005D0003B68202B01D100233B60FB1D1A78834B25
:1005E0009200D3583A68D2B2111C1F220A40D2B2EC
:1005F0001F210A40D2001968F82081430A431A607B
:10060000BB1D1B78012B0AD1FB1D1A78774B92007A
:10061000D3581A688021C9020A431A6008E0FB1DFA
:100620001A78724B9200D3581A6871490A401A60BE
:10063000FB1D1A786D4B9200D3589A6808210A4323
:100640009A607B1D1B78002B1BD1FB1D1A78674B12
:100650009200D3581A6867490A401A60FB1D1A783D
:10066000624B9200D3581A6804218A431A60FB1D1A
:100670001A785E4B9200D3581A6802218A431A6096
:10068000F7E07B1D1B78012B1BD1FB1D1A78574B04
:100690009200D3581A6857490A401A60FB1D1A780D
:1006A000524B9200D3581A6804210A431A60FB1D6A
:1006B0001A784E4B9200D3581A6802218A431A6066
:1006C000D7E07B1D1B78022B1BD1FB1D1A78474BF3
:1006D0009200D3581A6847490A401A60FB1D1A78DD
:1006E000424B9200D3581A6804218A431A60FB1DBA
:1006F0001A783E4B9200D3581A6802210A431A60B6
:10070000B7E07B1D1B78032B1BD1FB1D1A78374BE1
:100710009200D3581A6837490A401A60FB1D1A78AC
:10072000324B9200D3581A6804210A431A60FB1D09
:100730001A782E4B9200D3581A6802210A431A6085
:1007400097E07B1D1B78042B1CD1FB1D1A78274BCF
:100750009200D3581A68802109010A431A60FB1DD0
:100760001A78224B9200D3581A6804218A431A60DF
:10077000FB1D1A781D4B9200D3581A6802218A4338
:100780001A6076E07B1D1B78052B35D1FB1D1A788E
:10079000164B9200D3581A68802109010A431A6047
:1007A000FB1D1A78114B9200D3581A6804210A4392
:1007B0001A60FB1D1A780D4B9200D3581A6802215B
:1007C0008A431A6055E0C046380600200394FFFFB4
:1007D0000294FFFF00020050FFEFFFFFFFDFFFFF6B
:1007E000FFBFFFFFFF7FFFFF0494FFFF1C000020FF
:1007F000FFFFFBFFFFF7FFFF7B1D1B78062B1CD1C4
:10080000FB1D1A781D4B9200D3581A6880210901EC
:100810000A431A60FB1D1A78184B9200D3581A68C5
:1008200004218A431A60FB1D1A78144B9200D35896
:100830001A6802210A431A601BE0FB1D1A780F4B4D
:100840009200D3581A68802109010A431A60FB1DDF
:100850001A780A4B9200D3581A6804210A431A6086
:10086000FB1D1A78054B9200D3581A6802210A43DF
:100870001A600023181CBD4605B090BD1C00002066
:1008800080B582B000AF021CFB1D1A70BB1D0A1C94
:100890001A70BB1D1B78002B0AD1FB1D1A780A4B5E
:1008A0009200D3581A688021C9000A431A6008E0F0
:1008B000FB1D1A78044B9200D3581A6803490A406A
:1008C0001A60BD4602B080BD1C000020FFFBFFFF88
:1008D00080B582B000AF021CFB1D1A70BB1D0A1C44
:1008E0001A70FB1D1A78094B9200D358BA1D127862
:1008F00001210A40D2B201210A4012019968102058
:1009000081430A439A60BD4602B080BD1C000020AE
:1009100080B582B000AF021CFB1D1A70BB1D0A1C03
:100920001A70FB1D1A78094B9200D358BA1D127821
:1009300001210A40D2B201210A40920099680420A4
:1009400081430A439A60BD4602B080BD1C0000206E
:1009500080B500AF464B9A68802149030A439A60EC
:10096000434B9A68802189030A439A60A023DB05E0
:10097000DA68802149030A43DA60A023DB05DA68DC
:100980003C490A40DA60A023DB051A6B802149014B
:100990000A431A63A023DB051A6B802189010A43ED
:1009A0001A63334B5A6934490A40802189050A4346
:1009B0005A612F4B5A6992009208802109060A4316
:1009C0005A612E4B9A6808210A439A602B4B9A6809
:1009D00004218A439A60294B9A68802109010A43BD
:1009E0009A60264B9A6826490A409A60234B9A6877
:1009F000802109030A439A60204B9A6821490A40E2
:100A00009A601E4B9A68802109050A439A601B4B25
:100A10009A681D490A409A60184B1A68FF210A43D8
:100A20001A60164B1A68FF2109020A431A60134B19
:100A30005A6807218A4302210A435A600F4B5A68B9
:100A400070218A4320210A435A600C4B5A680F498F
:100A50000A40802189000A435A60084B5A680C49B1
:100A60000A40802189010A435A60BD4680BDC046C4
:100A700000020050FFFFEFFFFFFFFFCF0000044028
:100A8000FFFBFFFFFFFFFBFFFFFFFFFBFFF8FFFF89
:100A9000FF8FFFFF90B587B000AF021C3960FB1DD0
:100AA0001A7038685C4901F0B7FB031E01D05A4B3D
:100AB0003B605A4B1B68181CC823590201F0F4FA1A
:100AC000031C181C02F012FA031C7B61386854499D
:100AD00001F03CFF031C181C4F4901F045FD031CAD
:100AE000181C504901F0C4FB031C3B617869FE21CE
:100AF000890502F05DF8031CFB607869396901F033
:100B000025FF031C181C484901F02EFD031C181C6E
:100B1000FE21890502F04CF8031CBB60FB1D1B780D
:100B20000D2B22D002DC0C2B05D06FE00E2B37D022
:100B30000F2B50D06AE03D4CF86801F081FB031C9C
:100B4000E3603A4CB86801F07BFB031C2361374B30
:100B500000229A67354BDA6F01210A43DA67334B7B
:100B60009A6801210A439A6050E0304CF86801F01D
:100B700067FB031CA3612D4CB86801F061FB031CEB
:100B8000E3612A4B00229A67284BDA6F02210A435D
:100B9000DA67264B9A68802149000A439A6035E05B
:100BA000224CF86801F04CFB031C63621F4CB868D0
:100BB00001F046FB031CA3621C4B00229A671B4BEF
:100BC000DA6F04210A43DA67184B9A6880214902D8
:100BD0000A439A601AE0154CF86801F031FB031CD7
:100BE0002363124CB86801F02BFB031C63630F4BAB
:100BF00000229A670D4BDA6F08210A43DA670B4B24
:100C00009A68802149040A439A60C0460023181C50
:100C1000BD4607B090BDC046000034430000002030
:100C200000001041000040400000C84200000440A5
:100C300080B500AF02200C2100F058FA01200B21F2
:100C400000F054FA0E4B181C00F0F8FD0C4B181C69
:100C500000F0F4FD0A4B181C00F0F0FD00F0FEF867
:100C600002200C2100F0F4F901200B2100F0F0F932
:100C7000034B181C00F0E2FD181CBD4680BDC046A9
:100C800040420F0080B584B000AFFFF7E1FA00F0FA
:100C9000B1FF00F0E3F8FFF75BFE00230C20191C06
:100CA000FFF7F8FE0020002100F0FAF9031E6CD1D6
:100CB00001F0DCF903200E2100F018FA3C4B002073
:100CC000191C01F0B1F93B4B0120191C01F0ACF9E2
:100CD000394B0220191C01F0A7F9384B0320191CCD
:100CE00001F0A2F909237B600AE07B68DBB20020F7
:100CF000191C00F069F8FFF79BFF7B68013B7B60E4
:100D00007B68002BF1DAFFF723FE2D4B0C20191C1A
:100D1000FFF7C0FE0223FB602CE0FB68DBB2022081
:100D2000191C00F051F8FFF783FF0523BB601BE09F
:100D3000BB68DBB20120191C00F046F8FFF778FF12
:100D400009237B600AE07B68DBB20020191C00F0FD
:100D50003BF8FFF76DFF7B68013B7B607B68002BF6
:100D6000F1DABB68013BBB60BB68002BE0DAFB68D3
:100D7000013BFB60FB68002BCFDAFFF7E9FD0023A6
:100D80000C20191CFFF786FE11E001F06FF903201B
:100D90000E2100F05DF902200C2100F059F901202C
:100DA0000B2100F055F9074B181C00F047FD79E7BF
:100DB000B82F0000C82F0000DC2F0000EC2F00002F
:100DC0000000B44240420F0080B584B000AF021C66
:100DD000FB1D1A70BB1D0A1C1A70BB1D1A780F234D
:100DE000FB181D498A5C1A700E23FB1800221A702A
:100DF00022E00F23FB181B780122134007D00E239B
:100E0000FB181B780420191C00F022F906E00E23C1
:100E1000FB181B780420191C00F068F90F23FB183D
:100E20000F22BA18127852081A700E23FB181A787B
:100E30000E23FB1801321A700E23FB181B78072BA8
:100E4000D7D9FB1D1B7804330220191C00F000F9D0
:100E5000BD4604B080BDC0462C00002080B500AF68
:100E60000220042100F042F90220052100F03EF9A1
:100E70000220062100F03AF90220072100F036F99D
:100E8000BD4680BD80B582B000AF0F4B1B6A7B6052
:100E90000E4B1B6A3B603B680D4A13403B600A4B9C
:100EA0007A681A62094B3A681A620A4B1B68002B6F
:100EB00006D0084B1B6879683A68081C111C9847D3
:100EC000BD4602B080BDC0460040005040400050CA
:100ED000FF3FFFFF8806002080B584B000AF0F4BB6
:100EE0001B6AFB600E4B1B6ABB600E4B1B6A7B6070
:100EF0000A4BFA681A620A4BBA681A62094B7A6896
:100F00001A62094B1B68002B05D0074B1B68F86859
:100F1000B9687A689847BD4604B080BD80400050EB
:100F2000C0400050004100508C06002080B500AF4A
:100F3000064B8022D2011A62054B1B68002B02D09F
:100F4000034B1B689847BD4680BDC04640400050DB
:100F50009006002080B500AF064B802212021A6274
:100F6000054B1B68002B02D0034B1B689847BD46FE
:100F700080BDC046404000509406002080B584B03B
:100F800000AF3960111CFB1D021C1A70BB1D0A1C2E
:100F90001A703B68002B02DB3B68102B01DD2A4BEB
:100FA0004EE0FB1D1B789B01284A94466344FB607E
:100FB000BB1D1B78002B07D0BB1D1B78012B03D05A
:100FC000BB1D1B78022B29D1FB68FA6812683968AF
:100FD000490003208840011CC9430A401A60BB1D18
:100FE0001B78012B0AD1FB68FA681268396849003E
:100FF00001208840011C0A431A600EE0BB1D1B78CB
:10100000022B0AD1FB68FA6812683968490002208D
:101010008840011C0A431A6011E010E0BB1D1B78D8
:10102000032B0AD1FB68FA6812683968490003206B
:101030008840011C0A431A6001E0034B00E00023D2
:10104000181CBD4604B080BD0189FFFF0040005060
:1010500080B584B000AF021C3960FB1D1A703B687C
:10106000002B02DB3B68102B01DD0B4B10E0FB1D5E
:101070001B789B01094A94466344FB60FB689B68AC
:1010800001213A6891400A1C1A43FB689A600023C8
:10109000181CBD4604B080BD0189FFFF0040005010
:1010A00080B584B000AF021C3960FB1D1A703B682C
:1010B000002B02DB3B68102B01DD0A4B0EE0FB1D11
:1010C0001B789B01084A94466344FB60FB681A68DE
:1010D0003B68DA40131C1A1C01231340181CBD4640
:1010E00004B080BD0189FFFF1040005080B584B07E
:1010F00000AF021C3960FB1D1A703B68002B02DB3D
:101100003B68102B01DD0C4B11E0FB1D1B789B0194
:101110000A4A94466344FB60FB689B6801213A6875
:1011200091400A1CD2431A40FB689A600023181CA5
:10113000BD4604B080BDC0460189FFFF004000509D
:1011400080B584B000AF021CFB1D1A70FB1D1B781C
:101150003D2B00D927E39A00DA4BD3181B689F4632
:10116000D94B00221A60D94B00221A60D84B0022BA
:101170001A60D84B00221A60D74B00221A6014E381
:10118000D24BD24A1268802149010A431A60D34BDC
:10119000D24A12688021C9000A431A60CF4BCF4A55
:1011A0001268CF490A401A60FFE2C74BC64A12686C
:1011B000C02189000A431A60F7E2C34BC24A126891
:1011C000C02109010A431A60C44BC44A1268C449C9
:1011D0000A401A60E9E2BE4BBD4A12680F210A4379
:1011E0001A60B94BB84A1268802109020A431A6092
:1011F000BA4BBA4A1268F82189000A431A60D4E24D
:10120000B44BB44A1268C0210A431A60CDE2FB1DF8
:101210001B78062B04D10F23FB1806221A7003E05B
:101220000F23FB180E221A70A94BA94A12680F212E
:101230007918097803208840011C0A431A60A74BDB
:10124000A64A1268A6490A401A60AEE2A04BA04A1C
:1012500012680F210A431A60A04BA04A1268A149E4
:101260000A401A60A1E2994B984A12688021C9008D
:101270000A431A60994B994A126801210A431A607D
:1012800093E2934B924A126830210A431A608CE22F
:101290008F4B8F4A1268F02109010A431A608F4B65
:1012A0008E4A12688E490A401A607EE2874B874A4E
:1012B0001268802189000A431A60884B874A1268A5
:1012C00002210A431A6070E2814B814A1268C021F0
:1012D00089010A431A6068E27E4B7E4A12680F2138
:1012E0000A431A6061E2784B774A126880210A4308
:1012F0001A607A4B794A126804210A431A60774BC4
:10130000764A126876490A401A604EE2714B714A79
:10131000126830210A431A6047E26E4B6D4A126828
:10132000F02109010A431A603FE2684B674A1268DC
:101330008021C9010A431A60684B684A1268082173
:101340000A431A6031E2634B624A1268C021890184
:101350000A431A6029E25E4B5D4A12680F210A4374
:101360001A6022E25B4B5B4A126802210A431A6050
:101370001BE2584B574A126804210A431A6014E2D0
:10138000564B564A126804218A431A60534B534AFB
:10139000126853490A401A604B4B4B4A1268F91DB8
:1013A0000978173901208840011C0A431A60FCE1C2
:1013B0004A4B4A4A126808218A431A60434B434AFF
:1013C0001268F91D0978113901208840011C0A436F
:1013D0001A60EAE13D4B3D4A1268802149000A4308
:1013E0001A60E2E1394B394A1268802189000A43C8
:1013F0001A603A4B394A126802218A431A60D4E1D2
:10140000324B324A12688021C9000A431A60334BBA
:10141000324A126801218A431A60C6E12B4B2B4ADB
:101420001268802109010A431A602C4B2B4A12686A
:1014300010218A431A60B8E1244B244A12688021A3
:1014400009020A431A60254B244A12688021490484
:101450000A431A60A9E1204B1F4A126820210A435F
:101460001A601E4B1D4A1268802189040A431A60C3
:101470009BE1164B154A126804210A431A60174B68
:10148000164A12688021C9040A431A608DE10F4B85
:101490000E4A126808210A431A60104B0F4A12685C
:1014A000802109050A431A607FE1FB1D1B78282B68
:1014B0001AD9FB1D1B782B2B16D80F23FB180022E3
:1014C0001A7015E0FC2F000030000050340000506E
:1014D000380000503C0000504000005050000050C8
:1014E000FFF7FFFF1FFEFFFF0F23FB1804221A70F8
:1014F000FB1D1B78292B03D0FB1D1B782C2B11D136
:10150000AC4BAC4A12680F21791809780F2088403B
:10151000011C0A431A60A84BA74A1268A7490A404F
:101520001A602EE0FB1D1B782A2B03D0FB1D1B78B5
:101530002D2B0BD19F4B9F4A12680F2179180978E8
:1015400003208840011C0A431A601AE0FB1D1B7827
:101550002B2B03D0FB1D1B782E2B12D1954B954ABC
:1015600012680F2179180978023103208840011C84
:101570000A431A60904B904A126890490A401A60D8
:1015800013E112E18E4B8E4A1268C02109020A4310
:101590001A600AE1FB1D1B78302B07D1894B894A61
:1015A0001268C02189010A431A600AE0854B854A06
:1015B0001268F91D0978283901208840011C0A4366
:1015C0001A607D4B7C4A12687C490A401A60ECE044
:1015D000FB1D1B78312B13D17A4B7A4A1268C0213C
:1015E00009020A431A60744B734A126876490A402A
:1015F0001A60714B704A126870490A401A601CE008
:10160000704B704A1268F91D09782839012088400A
:10161000011C0A431A60FB1D1B78362B06D1664B52
:10162000654A126865490A401A6006E0624B624AE0
:10163000126865490A401A60B7E0B6E0FB1D1B78E6
:10164000322B13D15B4B5B4A1268802109010A439C
:101650001A60594B584A126810210A431A605B4BB2
:101660005A4A126820210A431A6018E0FB1D1B78B1
:10167000382B0DD14F4B4F4A1268802109010A4384
:101680001A604D4B4C4A126810210A431A6006E05A
:101690004E4B4E4A126820210A431A6085E084E0CE
:1016A000FB1D1B78332B06D1484B484A1268032197
:1016B0000A431A6011E0FB1D1B783A2B06D1434BFD
:1016C000424A126801210A431A6006E03F4B3F4A32
:1016D000126802210A431A6067E066E0354B354A1A
:1016E00012680C210A431A60334B334A1268C02136
:1016F000C9010A431A60334B324A126834490A431B
:101700001A602D4B2C4A1268FF2109040A431A6003
:10171000FB1D1B783C2B17D1264B264A12680C2147
:101720008A431A60244B244A12682A490A401A60E4
:10173000244B244A126828490A401A601E4B1E4A4C
:10174000126826490A401A601B4B1B4A1268C021C6
:1017500049010A431A60224B214A1268802149003C
:101760000A431A60174B174A1268C02109010A433D
:101770001A60104B0F4A1268C0210A431A60114BBD
:10178000104A1268C0210A431A60154B144A1268A5
:1017900014490A431A60074B064A1268C02189019E
:1017A0000A431A6001E0104B00E00023181CBD46FC
:1017B00004B080BD3400005050000050FFF7FFFF20
:1017C0003C00005030000050FFFDFFFF4000005083
:1017D0003E700000FF9FFFFFC18FFFFFFFFF00FF74
:1017E00038000050C0C000000189FFFF80B500AF85
:1017F000A023DB059A6910210A439A61044B1B68F8
:10180000002B02D0024B1B689847BD4680BDC046E6
:101810009806002080B500AF064B1A6840210A43A5
:101820001A60054B1B68002B02D0034B1B689847BE
:10183000BD4680BD000200509C06002080B582B0ED
:1018400000AF78600A4A0B4B1B6879684B435360C2
:10185000074B00229A60064B05221A60C046044BD3
:101860001A6880235B021340F9D0BD4602B080BDE8
:1018700010E000E00400002080B582B000AF021C40
:10188000FB1D1A70064BFA1D1278111C1F220A400C
:10189000012191400A1C1A60BD4602B080BDC046BD
:1018A00000E100E0B0B582B000AF021C3960FB1D62
:1018B0001A70FB1D1B787F2B2FD92D4CFB1D1B781D
:1018C0001A1C0F231340083B9908294AFB1D1B785B
:1018D000181C0F230340083B9B0806339B00D318BA
:1018E0005B68FA1D1278101C03220240D200101C03
:1018F000FF228240D2431A403B689B01FF200340F5
:10190000F81D0078051C03202840C00083401A43BE
:101910008B1D9B00E3185A6026E0164CFB1D1B78BC
:101920005BB29B081349FA1D127852B29208C0327A
:1019300092005258F91D0978081C03210140C90082
:10194000081CFF218140C94311403A689201FF20E1
:101950000240F81D0078051C03202840C00082408A
:101960000A43C0339B001A51BD4602B0B0BDC04609
:1019700000ED00E000E100E0B0B582B000AF051C72
:101980000C1C101C191CFB1D2A1C1A70BB1D221CD0
:101990001A707B1D021C1A703B1D0A1C1A70A023B2
:1019A000DB05DA68802149050A43DA60A023DB05FC
:1019B000DA6830490A40DA602F4B3A1D1278032169
:1019C0000A40D2B203210A40920059690C20814397
:1019D0000A435A61284B1822BA181278FF210A408C
:1019E00012049969254801400A439A61224B9A687A
:1019F000802149050A439A60214B1A6A01210A4352
:101A00001A62FB1D1B78002B05D11D4B1A6A1D495C
:101A10000A401A6205E01A4B1A6A8021C9000A437B
:101A20001A62BB1D1B78002B05D1154B1A6A0C21BD
:101A30008A431A6210E0BB1D1B78012B07D1104BA3
:101A40001A6A0C218A4308210A431A6204E00C4BEB
:101A50001A6A0C210A431A62094B7A1D1278FF2177
:101A60000A40596AFF2081430A435A62BD4602B0C8
:101A7000B0BDC046FFFFFFEF00020050FFFF00FFB8
:101A800000000E40FFFBFFFF80B582B000AF021CDC
:101A9000FB1D1A70104BFA1D127803210A40D2B2B6
:101AA00003210A401202596A0C4801400A435A6253
:101AB000FB1D1B78022B06D1A023DB05DA6901216F
:101AC0000A43DA6105E0A023DB05DA6901218A43D4
:101AD000DA61BD4602B080BD00000E40FFFCFFFF92
:101AE00080B582B000AF786039600E4B7A681A60BA
:101AF0000D4B3A681A600D4B0C4A126807218A4355
:101B000001210A431A600A4B1A6A02210A431A6227
:101B10001D200221FFF7C6FE1D20FFF7ADFEBD46CA
:101B200002B080BDA0060020AC06002030000E40B0
:101B300000000E4080B500AF284B1B6B1A1C012320
:101B40001340DBB2012B11D1254B1B68002B05D0B4
:101B5000234B1A68234B1B68181C9047224B224AC0
:101B6000126807218A4301210A431A601B4B1B6B31
:101B70005B081A1C01231340DBB2012B11D11B4B54
:101B80001B68002B05D0194B1A68164B5B68181C94
:101B90009047154B144A126807218A4302210A43D1
:101BA0001A600E4B1B6B9B081A1C01231340DBB2FF
:101BB000012B11D10E4B1B68002B05D00C4B1A6862
:101BC000084B9B68181C9047074B074A126807216F
:101BD0008A4304210A431A60BD4680BD00000E40BE
:101BE000A0060020AC06002030000E40A406002015
:101BF000A806002080B500AF714B9A6880210902C9
:101C00000A439A60A023DB05DA68802109020A43AF
:101C1000DA60A023DB05DA686A490A40DA60A023AB
:101C2000DB05DA6B802149000A43DA63A023DB0578
:101C3000DA6B802189000A43DA63A023DB05DA6BC3
:101C4000802109010A43DA635F4BDB681A6880214F
:101C500009010A431A605C4BDB681A68F8218A4361
:101C600048210A431A60584BDB681A6804210A436A
:101C70001A60554BDB685A68120C120403210A43A0
:101C80005A60514BDB689A6803218A4301210A4359
:101C90009A604D4BDB68EB221A624B4BDB681A688B
:101CA00001210A431A60C046474BDB681B681A1CB7
:101CB00001231340DBB2012BF6D0434BDB689A685B
:101CC00003218A439A60404BDB689A6803218A4368
:101CD00001210A439A603C4BDB6881221A623A4B2D
:101CE000DB681A6801210A431A60C046364BDB687C
:101CF0001B681A1C01231340DBB2012BF6D0324BB8
:101D0000DB68A0221A62304BDB681A6801210A43A3
:101D10001A60C0462C4BDB681B681A1C0123134059
:101D2000DBB2012BF6D0284BDB689A6803218A438B
:101D30009A60254BDB689A6803218A4301210A4394
:101D40009A60214BDB68C0221A621F4BDB681A685D
:101D500001210A431A60C0461B4BDB681B681A1C32
:101D600001231340DBB2012BF6D0174BDB689A68D6
:101D700003218A439A60144BDB689A6803218A43E3
:101D800001210A439A60104BDB68AF221A620E4BA6
:101D9000DB681A6801210A431A60C0460A4BDB68F7
:101DA0001B681A1C01231340DBB2012BF6D0064B33
:101DB000DB689A6803218A439A60BD4680BDC046AD
:101DC00000020050FF7FFFFF2806002080B582B090
:101DD00000AF021CFB1D1A70144BDB689A680321CC
:101DE0008A4301210A439A60104BDB68FA1D12787E
:101DF000802149000A431A620C4BDB681A680121F2
:101E00000A431A60C046094BDB681B681A1C012391
:101E10001340DBB2012BF6D0044BDB689A68032138
:101E20008A439A60BD4602B080BDC04628060020A5
:101E300080B582B000AF021CFB1D1A70BB1D0A1CCE
:101E40001A703C4BDB689A6803218A4301210A43DC
:101E50009A60384BDB68FA1D1278502149420A43D8
:101E6000D2B21A62334BDB681A6801210A431A6046
:101E7000C046304BDB681B681A1C01231340DBB2E1
:101E8000012BF6D02B4BDB689A6803218A439A60BA
:101E9000284BDB689A6803218A4301210A439A6030
:101EA000244BDB68BA1D12781209D2B2111C0F2222
:101EB0000A4010210A431A621E4BDB681A6801218E
:101EC0000A431A60C0461B4BDB681B681A1C0123BF
:101ED0001340DBB2012BF6D0164BDB689A68032166
:101EE0008A439A60134BDB689A6803218A43012175
:101EF0000A439A600F4BDB68BA1D12780F210A4023
:101F00001A620C4BDB681A6801210A431A60C0464A
:101F1000084BDB681B681A1C01231340DBB2012B42
:101F2000F6D0044BDB689A6803218A439A60BD4669
:101F300002B080BD2806002090B587B000AF041C19
:101F4000081C111CFB1D221C1A70BB1D021C1A70E0
:101F50007B1D0A1C1A7000237B6100233B617B1DE3
:101F60001B78203B1B013B6100237B6124E0FB1DB0
:101F70001B78DB18D9B2BB1D1B7808225242534391
:101F8000DAB27B69DBB2D31ADBB27F3BDBB2081C6F
:101F9000191CFFF74DFF3A697B69D2180F23FB1814
:101FA00020498A5C1A700F23FB181B78181CFFF756
:101FB0000DFF7B6901337B617B69072BD7DD002334
:101FC0007B6128E0FB1D1B78DB18DBB20133D9B243
:101FD000BB1D1B78082252425343DAB27B69DBB245
:101FE000D31ADBB27F3BDBB2081C191CFFF720FFC2
:101FF0003A697B69D31808331A1C0F23FB18094967
:102000008A5C1A700F23FB181B78181CFFF7DEFE82
:102010007B6901337B617B69072BD3DDBD4607B04C
:1020200090BDC0463800002080B584B000AF021CCF
:102030003960FB1D1A700023FB60FB68D9B23B6856
:102040005A1C3A601A78FB1D1B78181CFFF774FFA6
:10205000FB680133FB60FB680F2B00DD03E03B688E
:102060001B78002BE9D1BD4604B080BD80B582B09D
:1020700000AF00237B6000200021FFF7D9FE002382
:102080007B6005E00020FFF7A1FE7B6801337B60E9
:102090007B68044A9342F5DD0F20FFF797FEBD46AB
:1020A00002B080BD1F040000002243088B4274D39D
:1020B00003098B425FD3030A8B4244D3030B8B4249
:1020C00028D3030C8B420DD3FF22090212BA030C52
:1020D0008B4202D31212090265D0030B8B4219D333
:1020E00000E0090AC30B8B4201D3CB03C01A524153
:1020F000830B8B4201D38B03C01A5241430B8B429B
:1021000001D34B03C01A5241030B8B4201D30B0383
:10211000C01A5241C30A8B4201D3CB02C01A5241AA
:10212000830A8B4201D38B02C01A5241430A8B426D
:1021300001D34B02C01A5241030A8B4201D30B0256
:10214000C01A5241CDD2C3098B4201D3CB01C01A70
:10215000524183098B4201D38B01C01A524143097A
:102160008B4201D34B01C01A524103098B4201D368
:102170000B01C01A5241C3088B4201D3CB00C01AD5
:10218000524183088B4201D38B00C01A524143084D
:102190008B4201D34B00C01A5241411A00D2014672
:1021A000524110467047FFE701B5002000F00CF8DF
:1021B00002BDC0460029F7D003B5FFF775FF0EBC7E
:1021C0004243891A1847C0467047C0468446081CD7
:1021D0006146FFE71FB500F073FB002801D4002122
:1021E000C8421FBD10B500F0F7FA4042013010BDE3
:1021F00010B500F065FB002801DB002010BD0120B8
:1022000010BDC04610B500F05BFB002801DD0020CA
:1022100010BD012010BDC04610B500F007FB00281E
:1022200001DC002010BD012010BDC04610B500F03B
:10223000FDFA002801DA002010BD012010BDC046C3
:102240009E2110B5C905041CFFF7F0FF002803D13B
:10225000201C00F02BFE10BD9E21201CC90500F0A3
:10226000A7FC00F023FE80231B069C466044F2E797
:10227000F8B54A00430244004E02C50F240E281C44
:102280009B09120EC90FB7098D4240D0A01A002831
:1022900000DC84E0002A1CD1002F5CD15A0704D056
:1022A0000F221A40042A00D004338022D2041A409C
:1022B000281C002A24D00134FF2C00D17BE09B0194
:1022C0005B0AE4B25B02E4055B0A2343C0071843E0
:1022D000F8BDFF2CE2D08022D204174301261B2830
:1022E00008DC391C20223E1CC140101A8640771E93
:1022F000BE410E439B1B5A0133D4281C5A07CFD131
:10230000DB08FF2C1ED05B025B0AE4B2DAE7A11AFD
:10231000002957DD002A3AD0FF2CBFD08022D204FA
:10232000174301261B2972DD9B195A01E5D501349B
:10233000FF2C00D187E001218A4A194013405B0835
:102340000B43ABE7002B36D08022D20313435B0252
:102350005B0AFF24B6E7013800283FD1DB1B5A0196
:10236000CBD59B019E09301C00F008FE0538864045
:10237000844223DC001B1F24321C431C201ADA4039
:102380008640131C741EA6410024334386E7002FA9
:1023900000D183E70139002950D1DB19C5E70028B6
:1023A00020D1621CD2B2012A5EDDDE1B720128D56B
:1023B000FE1A0D1CD7E7FF24002383E7694B241A7C
:1023C00033406BE7002958D1621CD1B201293CDDB2
:1023D000FF2A37D0FB185B08141C5FE7FF2C00D0E6
:1023E0007CE75BE7002C1ED0FF2A23D08024E40486
:1023F000404223431B285BDD0123FB1A141C0D1CE8
:10240000ADE7002EAFD100230020002478E73A1C6E
:10241000CA40944620223E1C511A8E406246771EC6
:10242000BE41164380E7002B3ED0C0430028E4D0D5
:10243000FF2ADFD13B1CFF240D1C2FE7FF2C00D00F
:102440006FE72BE7FF2400235AE7002C5AD1002B1B
:102450007FD0002F00D121E7DB195A0100D44CE7CF
:10246000404A0134134019E7002C15D1002B2FD11D
:10247000002F5DD03B1C0D1C10E7002C21D1002B40
:1024800053D0C943002904D0FF2A4BD01B2957DD64
:102490000123DB19141C48E7002B22D1002F4AD05E
:1024A0003B1C0D1CFF24F9E63B1C141C0D1CF5E61F
:1024B0001D1C2024C540201A8340581E83412B43F5
:1024C0009BE7FF2A2ED08024E40449422343DDE722
:1024D000002F00D1E2E6DA1B50013CD5FB1A0D1C9F
:1024E000DCE6FF24002F00D1D8E68022DB08D203EF
:1024F000134204D0FE08164201D1331C0D1CDB0030
:10250000FF24CBE6002B0DD0FF24002F00D1C5E621
:102510008022DB08D2031342F1D0FE081642EED12E
:10252000331CECE73B1CFF24B8E63B1C141CB5E64F
:10253000231C0020E4E6802300209B04FF24DFE628
:102540001E1C2024CE40611A8B40591E8B41334300
:102550009FE73B1CA2E6131E00D0CEE6002300201E
:10256000CEE6C046FFFFFFFBF0B556464D465F4640
:102570004446F0B443024500C70F83B08A465C0A64
:102580002E0EB94641D0FF2E26D080231B042343B4
:10259000DC00002398469B467F3E53465B025D0A63
:1025A00053465A00DB0F120E9A4639D0FF2A33D019
:1025B00080231B042B43DD0000237F3A5146B21ACF
:1025C00046467940081C01921E430F2E00D976E042
:1025D0007E4AB6009659B746002C30D1082398465B
:1025E000063B9B46D9E780230021DB03FF245B02E7
:1025F000E4055B0AC90723430B43181C03B03CBC2A
:1026000090469946A246AB46F0BD002C28D1042343
:102610009846033B9B46C0E7002D1FD1022302E0F2
:10262000002D11D10123B21A50464646784001923E
:102630001E430F2E27D86649B60089598F460C23B2
:102640009846093B9B46A8E7281C00F097FC762299
:10265000431F52429D40121A0023AFE70323ADE708
:10266000201C00F08BFC431F9C4076235B421E1A0B
:10267000002398469B4690E70025D1469B465B4643
:102680004846022B6FD10121FF2401400023AEE711
:102690007E23019A5B429B1A1B2B6DDD01214B4669
:1026A000194000240023A2E78023DB031C4249D108
:1026B0008023DB0323435B025B0A391C96E763013B
:1026C0006D01AB4237D389461A2001215B1B0124DF
:1026D0001E1C49005B00002E01DBAB4201D35B1BDB
:1026E000214301380028F3D1581E83410B431D1CA0
:1026F000019C7F34002CCBDD6B0704D00F232B40D3
:10270000042B00D004352B0104D5019A314B8032C3
:10271000141C1D40FE2C07DD4B460121FF241940EF
:10272000002364E7251CAAE701214A46AB015B0AA6
:10273000E4B211405BE7019A8946013A01921B20FD
:102740000021C4E71D4207D023435B025B0A391C0A
:102750004CE700256302ABD58023DB032B435B02F0
:102760005B0A514642E7032B25D0012BC0D1012142
:102770000024014000233AE7291CD9402B1C019A70
:102780009E3293405D1EAB410B435A0704D00F228B
:102790001A40042A00D004335A0105D54B460121C2
:1027A00001241940002322E701214A469B015B0ACC
:1027B000114000241BE7802301214A46DB032B4301
:1027C0005B020A405B0A111C10E7C046F4300000AF
:1027D00034310000FFFFFFF7430270B542004C00A8
:1027E0005D0AC30F4802120E460A240EC90FFF2AC3
:1027F00005D0FF2C08D00120A2420BD070BD0120D3
:10280000002DFBD1FF2CF6D10120002EF6D10120A6
:10281000A242F3D1B542F1D18B4205D0002AEDD1CD
:10282000281C431E9841E9E70020E7E7F0B5430282
:102830004D024A0044005E0A240EC30F6D0A120EB8
:10284000C90FFF2C0DD0FF2A31D0002C0DD17742BB
:102850007741002A23D1002D21D10020002F0BD158
:1028600007E0002E28D1FF2A21D0002A05D08B4274
:1028700007D0584201231843F0BD002DF9D08B42F8
:10288000F7D19442F5DC04DBAE42F2D80020AE4230
:10289000F2D25842434101205B421843ECE7002F3B
:1028A000E5D048424141012049420843E4E7002D78
:1028B00002D1002CCBD0DAE702204042DCE7C04650
:1028C0004302F0B542004C005E0AC30F4802120EEC
:1028D000450A240EC90FFF2A0FD0FF2C1AD0002A58
:1028E00010D177427741002C29D0002F17D04842D1
:1028F00041410120494208430BE00220002E08D14B
:10290000FF2C07D0002C0AD1002D08D158420123FA
:102910001843F0BD0220002DFBD1002AE1D08B42EC
:10292000F4D1A242F2DC04DBAE42EFD80020AE428A
:10293000EFD25842434101205B421843E9E7002DA2
:10294000D3D10020002FE4D1E0E7C046F0B55F46C8
:1029500056464D464446F0B445024600C40F83B087
:102960000F1C6D0A360EA34645D0FF2E25D08023BE
:102970001B041D4300239A46ED007F3E01937B021A
:102980005B0A98467800FB0F000E994640D0FF285E
:1029900038D0802342461B041343DB0098460023B3
:1029A0007F384A46019F30186240411C1F430F2F59
:1029B00069D87D4EBF00F659B746002D45D1082392
:1029C0000193063B9A46DAE793465346022B2FD1F2
:1029D0005B46012400251C40FF236D02DB056D0AC8
:1029E000E4071D432543281C03B03CBC9046994690
:1029F000A246AB46F0BD002D2CD104230193033B2E
:102A00009A46BCE743465A4253410322D31AC8E7C9
:102A100042460123002AC4D0404600F0AFFA4246A5
:102A2000431F9A4076235B42181A90460023B8E76A
:102A3000032B00D1ADE0012B00D08CE05B46544667
:102A40001C40E4B200230025C7E70C230193093B97
:102A50009A4694E7281C00F091FA7626431F9D4081
:102A600000237642361A01939A4688E7802500248F
:102A7000ED03FF23B1E74546CB469A46A5E7454619
:102A800093469A46A1E743462C041B0C9C46230C14
:102A9000444626041C1C360C2F0C7443351C664619
:102AA0007D4373437743EB18260C9E19B54203D937
:102AB00080235B029C46674424043304240C1B19C6
:102AC0009D016C1EA5419B0E360C2B43BD19AD011B
:102AD0001D432B0104D5012368081D400543081C34
:102AE000031C7F33002B2CDD690704D00F21294004
:102AF000042900D00435290103D52C4B1D40031CAB
:102B00008033FE2B17DD0124FF231440002564E7EA
:102B10008020C003054209D04346034206D1454602
:102B200005436D026D0A4C46FF2356E705436D02CF
:102B30006D0AFF2351E70124AD016D0ADBB2144099
:102B40004BE77E235B421B1A1B2B07DD012400236E
:102B50001440002541E7081C5A46C1E79E30291C55
:102B60008540D940681E85410D436B0704D00F2373
:102B70002B40042B00D004356B0104D50124012324
:102B80001440002529E70124AD016D0A14400023FB
:102B900023E78023DB031D4301245B466D022340B2
:102BA0001C1C6D0AFF2318E774310000FFFFFFF7BC
:102BB000F8B54A00430244004D02C00F240E061C23
:102BC0009B09120EC90FAD09FF2A00D175E001273C
:102BD0007940884250D0A01A002800DC8FE0002AFB
:102BE0001ED1002D00D075E05A0704D00F221A40E4
:102BF000042A00D0043380220120D2041A4030403D
:102C0000002A32D00134FF2C00D184E09B015B0A02
:102C1000E4B25B02E4055B0A2343C0071843F8BD36
:102C2000FF2CE1D08022D20415431B287ADD012538
:102C30005B1B5A015DD59B019F09381C00F09EF972
:102C400005388740844269DC001B1F243A1C431C62
:102C5000201ADA408740131C7C1EA74100243B4306
:102C6000C2E7131E45D100230020DB08FF2C28D02B
:102C70005B025B0AE4B2CCE7A11A00295BDD002A03
:102C80002ED0FF2CB0D08022D20415431B2974DC37
:102C90002F1C2022CF40511A8D40691E8D413D438B
:102CA0005B195A0125D50134FF2C74D001217E4ACD
:102CB000194013405B080B4396E7002D00D088E7CE
:102CC00085E7002B27D08022D20313435B025B0AE7
:102CD000FF249EE701380028AAD0FF2CA5D183E766
:102CE000002D00D180E701390029D9D0FF2CCDD1AA
:102CF0007AE75A0700D079E701203040B5E700288D
:102D000025D1621CD2B2012A55DD5F1B7A012DD577
:102D1000EF1A0E1C91E7FF2400237AE7624B241A76
:102D20003B4061E7291C2022C140101A8540681EE3
:102D300085410D437CE7002946D1621CD1B20129AF
:102D40002BDDFF2A26D0EB185B08141C4CE7002C67
:102D500015D0FF2A1AD08024E404404223431B28C4
:102D60004DDD0123EB1A141C0E1C62E7002F00D06E
:102D700063E700230020002477E7012590E7002B7C
:102D800039D0C0430028EDD0FF2AE8D12B1CFF2406
:102D90000E1C29E7FF24002367E7002C5AD1002BE3
:102DA0007FD0002D00D11FE75B195A01A1D53E4A03
:102DB0000134134018E7002C15D1002B2FD1002D22
:102DC0005ED02B1C0E1C0FE7002C21D1002B54D001
:102DD000C943002904D0FF2A4CD01B2958DD012308
:102DE0005B19141C5DE7002B23D1002D4BD02B1C4D
:102DF0000E1CFF24F8E62B1C141C0E1CF4E61E1CF3
:102E00002024C640201A8340581E83413343A9E73B
:102E1000FF2A2FD08024E40449422343DDE7002D1C
:102E200000D1E1E65A1B500100D41AE7EB1A0E1C40
:102E3000DAE6FF24002D00D1D6E68022DB08D2039B
:102E4000134204D0ED08154201D12B1C0E1CDB00EF
:102E5000FF24C9E6002B0DD0FF24002D00D1C3E6CE
:102E60008022DB08D2031342F1D0ED081542EED1E7
:102E70002B1CECE72B1CFF24B6E62B1C141CB3E622
:102E8000231C0020F1E6802300209B04FF24ECE6B5
:102E90001F1C2024CF40611A8B40591E8B413B439D
:102EA0009EE72B1CA0E6C046FFFFFFFB4202510A33
:102EB0004200C30F120E00207E2A0DDD9D2A0CDC7D
:102EC000802000040143952A0ADC9620821AD14012
:102ED0000A1C58424240D0187047034A9818FBE732
:102EE000963A91400A1CF4E7FFFFFF7F10B5041EDD
:102EF00035D000F043F89E21091A962909DC0828EC
:102F000030DD021C231C083A93405B025B0AC8B206
:102F100020E099290CDD0522231C121AD3401A1C2B
:102F2000031C1B339C40231C5C1EA34113431C1C2D
:102F3000052801DD431F9C400F4B2340620704D04E
:102F40000F221440042C00D004335A010ED49B01EC
:102F50005B0AC8B25B025B0AC005184310BD0020C3
:102F60000023F7E763025B0AC8B2F3E79F21024A36
:102F7000091A1340EBE7C046FFFFFFFB1C210123AA
:102F80001B04984201D3000C10391B0A984201D34C
:102F9000000A08391B09984201D30009043902A22A
:102FA000105C40187047C046040302020101010191
:102FB00000000000000000002021214B6562616BD1
:102FC0006172616E212100004C616B756B616E2036
:102FD0004576616B75617369000000004875627524
:102FE0006E67692050656D6164616D0020204775D2
:102FF0006E616B616E2041504152200060110000F3
:1030000080110000AA110000BA110000D6110000C2
:10301000001200000E1200000E1200004C12000000
:10302000661200008212000090120000AC12000034
:10303000C8120000D8120000E61200000C130000B5
:103040001A1300002A130000461300005613000054
:103050006413000072130000981300008C1300002A
:103060008C1300008C1300008C1300008C130000E4
:103070008C13000080130000B0130000BC1300008C
:10308000D4130000E4130000001400001C1400001E
:103090003814000056140000721400008E14000052
:1030A000AA140000AA140000AA140000AA14000028
:1030B000AA140000AA140000841500009415000052
:1030C000D01500003C160000A0160000941500006A
:1030D00094150000D0150000D01500003C1600002B
:1030E0003C160000A0160000A016000010170000FB
:1030F000DC160000BE26000086260000A226000086
:103100007A260000A2260000E6250000A226000084
:103110007A2600008626000086260000E6250000AC
:103120007A2600002427000024270000242700001E
:10313000A826000086260000862600006E270000D4
:10314000782600006E270000E62500006E270000AC
:10315000782600008626000086260000E62500006E
:1031600078260000242700002427000024270000E0
:1031700052270000862A00007E2A00007E2A0000D6
:10318000762A0000C8290000C82900006C2A000027
:10319000762A0000C82900006C2A0000C829000017
:1031A000762A0000CA290000CA290000CA290000A6
:0431B000102B0000E0
:1031B4000080510116000000001BB70000800000D1
:1031C40000805101102700000080510100000340DD
:1031D40000400340000013400040134082EE0746C5
:1031E4006A5212E6026200000000000000000000C3
:1031F4000000000000000000F000000000000000DB
:10320400CF000000000000000000000000000000EB
:10321400F00000F000000000000000C030C03000EA
:10322400C839CF390F090100E01010F81010600000
:10323400304142FF42443800C02010E020E0180032
:1032440001C2310C7388443800E01010E000000023
:103254007885828D70A29E4200000000000000006C
:10326400F000000000000000C0300804000000006E
:103274001F60800000000000040830C0000000004F
:103284000080601F0000000000000000000000003B
:103294004428FE28440000000000008000000000D4
:1032A400080808FF080808000000000000000000EB
:1032B400B0700000000000000000000000000000EA
:1032C40080808080000000000000000000000000FA
:1032D400C0C000000000000000008070000000007A
:1032E400E01C030000000000C020101020C00000FB
:1032F4003F408080403F000020F0000000000000BC
:1033040080FF8000000000006010101020C000004A
:10331400C0A0908886C1000020101010E0000000BA
:10332400808082834438000000008060F000000048
:1033340018161110FF10000000F0101010100000FB
:1033440080818181423C00008040201010100000E8
:103354003F428181423C00007010101090700000C8
:103364000000E01C03000000C020101020C000007A
:103374003845828245380000C020101020C000006B
:1033840083848848241F000000000000000000001F
:10339400C3C3000000000000C0C000000000000023
:1033A400B0700000000000000000000000000000F9
:1033B400102828444482000000000000000000009F
:1033C40088888888888888880000000000000000B9
:1033D4008244442828100000E010101020C000008F
:1033E4000000D80601000000C02010909010A0C07A
:1033F4003F408F90908F505F0000807080000000ED
:1034040080F08F088FF0800010F010101020C000A2
:1034140080FF828282453800C02010101020700086
:103424003F4080808080400010F0101010608000C9
:1034340080FF808080601F0010F01010101070005A
:1034440080FF82828287E00010F01010101070005C
:1034540080FF820202070000C020101020700000CC
:103464003F408080847C040010F0100010F01000B5
:1034740080FF820282FF800010F010000000000034
:1034840080FF800000000000000010F01000000029
:103494004080807F0000000010F010805030100049
:1034A40080FF830CB0C0800010F01000000000000A
:1034B40080FF808080C0200010F0800080F0100029
:1034C40080FF833C83FF800010F0C00010F01000E8
:1034D40080FF800F30FF00008060101010608000BB
:1034E4001F60808080601F0010F010101020C0004A
:1034F40080FF840404020100E01804040418E000BE
:10350400071820206098870010F010101020C000C9
:1035140080FF840C34C28100C02010101020700081
:10352400E041828284483000301010F010103000E6
:10353400000080FF8000000010F0100010F0100068
:10354400007F8080807F000010F0100010F01000D9
:1035540000011EE01E01000010F010C010F0100069
:10356400000FF00FF00F000010709000907010002A
:1035740080E0990699E0800010709000907010002F
:10358400000083FC830000007010101010D0300085
:10359400C0B088868180E000FC04040000000000C4
:1035A400FF80800000000000708000000000000028
:1035B40000031CE0000000000404FC000000000004
:1035C4008080FF00000000000000000000000000F8
:1035D40080601806186080000000000000000000F1
:1035E40080808080808080800000000000000000D7
:1035F4002060408000000000000000000000000087
:1036040066918949FE80000010F00000000000006F
:10361400007F8181423C00000000000000000000A7
:103624003C4281818142000000000010F000000053
:103634003C4281817F800000000000000000000007
:103644003C4A89898A4C00000000E01010200000E8
:103654000181FF8101000000804040408040000063
:1036640053ACA4A4A340000010F00000000000002C
:1036740080FF0101FE80000000B000000000000097
:1036840081FF800000000000000080CC00000000EA
:103694004080807F0000000010F000000000000067
:1036A40080FF9825C381000010F000000000000096
:1036B40080FF800000000000000000000000000007
:1036C40081FE01FE01FE80000000000000000000F9
:1036D40081FE0101FE8000000000000000000000E7
:1036E4003C428181423C0000408040408000000018
:1036F40080FFA020100F00000080404080400000A8
:103704000F1020A0FF800000000000000000000057
:1037140081FF8201010000000000000000000000A1
:10372400E6498991926700000000C0000000000093
:1037340001017F81814000000000000000000000C2
:10374400017F80817F8000000000000000000000F5
:10375400010739C039070100000000000000000023
:10376400011FE11CE11F0100000000000000000037
:1037740081E71818E781000040C0400040C04000C5
:1037840080814638060100000000000000000000AF
:10379400C3A1918985C3000000F008000000000067
:1037A400027D800000000000F00000000000000026
:1037B400FF0000000000000008F00000000000000E
:1037C400807D0200000000000000000000000000F6
:1037D400C0202060C080806000000340004013408F
:0837E4000000134000401340F7
:00000001FF
